{
  "_format": "hh-sol-artifact-1",
  "contractName": "CoffeePortal",
  "sourceName": "contracts/CoffeePortal.sol",
  "abi": [
    {
      "inputs": [],
      "stateMutability": "payable",
      "type": "constructor"
    },
    {
      "anonymous": false,
      "inputs": [
        {
          "indexed": true,
          "internalType": "address",
          "name": "from",
          "type": "address"
        },
        {
          "indexed": false,
          "internalType": "uint256",
          "name": "timestamp",
          "type": "uint256"
        },
        {
          "indexed": false,
          "internalType": "string",
          "name": "message",
          "type": "string"
        },
        {
          "indexed": false,
          "internalType": "string",
          "name": "name",
          "type": "string"
        }
      ],
      "name": "NewCoffee",
      "type": "event"
    },
    {
      "inputs": [
        {
          "internalType": "string",
          "name": "_message",
          "type": "string"
        },
        {
          "internalType": "string",
          "name": "_name",
          "type": "string"
        },
        {
          "internalType": "uint256",
          "name": "_payAmount",
          "type": "uint256"
        }
      ],
      "name": "buyCoffee",
      "outputs": [],
      "stateMutability": "payable",
      "type": "function"
    },
    {
      "inputs": [],
      "name": "getTotalCoffee",
      "outputs": [
        {
          "internalType": "uint256",
          "name": "",
          "type": "uint256"
        }
      ],
      "stateMutability": "view",
      "type": "function"
    },
    {
      "inputs": [],
      "name": "owner",
      "outputs": [
        {
          "internalType": "address payable",
          "name": "",
          "type": "address"
        }
      ],
      "stateMutability": "view",
      "type": "function"
    }
  ],
  "bytecode": "0x608060405261004c6040518060400160405280600e81526020017f536d61727420436f6e747261637400000000000000000000000000000000000081525061009260201b6101291760201c565b33600160006101000a81548173ffffffffffffffffffffffffffffffffffffffff021916908373ffffffffffffffffffffffffffffffffffffffff16021790555061020c565b61012e816040516024016100a691906101ea565b6040516020818303038152906040527f41304fac000000000000000000000000000000000000000000000000000000007bffffffffffffffffffffffffffffffffffffffffffffffffffffffff19166020820180517bffffffffffffffffffffffffffffffffffffffffffffffffffffffff838183161783525050505061013160201b60201c565b50565b60008151905060006a636f6e736f6c652e6c6f679050602083016000808483855afa5050505050565b600081519050919050565b600082825260208201905092915050565b60005b83811015610194578082015181840152602081019050610179565b60008484015250505050565b6000601f19601f8301169050919050565b60006101bc8261015a565b6101c68185610165565b93506101d6818560208601610176565b6101df816101a0565b840191505092915050565b6000602082019050818103600083015261020481846101b1565b905092915050565b6105cf8061021b6000396000f3fe6080604052600436106100345760003560e01c8063441315c5146100395780634839ee3f146100555780638da5cb5b14610080575b600080fd5b610053600480360381019061004e919061037b565b6100ab565b005b34801561006157600080fd5b5061006a6100fa565b6040516100779190610415565b60405180910390f35b34801561008c57600080fd5b50610095610103565b6040516100a29190610471565b60405180910390f35b66038d7ea4c680008111156100f5576040517f08c379a00000000000000000000000000000000000000000000000000000000081526004016100ec906104e9565b60405180910390fd5b505050565b60008054905090565b600160009054906101000a900473ffffffffffffffffffffffffffffffffffffffff1681565b6101bf8160405160240161013d9190610577565b6040516020818303038152906040527f41304fac000000000000000000000000000000000000000000000000000000007bffffffffffffffffffffffffffffffffffffffffffffffffffffffff19166020820180517bffffffffffffffffffffffffffffffffffffffffffffffffffffffff83818316178352505050506101c2565b50565b60008151905060006a636f6e736f6c652e6c6f679050602083016000808483855afa5050505050565b6000604051905090565b600080fd5b600080fd5b600080fd5b600080fd5b6000601f19601f8301169050919050565b7f4e487b7100000000000000000000000000000000000000000000000000000000600052604160045260246000fd5b61025282610209565b810181811067ffffffffffffffff821117156102715761027061021a565b5b80604052505050565b60006102846101eb565b90506102908282610249565b919050565b600067ffffffffffffffff8211156102b0576102af61021a565b5b6102b982610209565b9050602081019050919050565b82818337600083830152505050565b60006102e86102e384610295565b61027a565b90508281526020810184848401111561030457610303610204565b5b61030f8482856102c6565b509392505050565b600082601f83011261032c5761032b6101ff565b5b813561033c8482602086016102d5565b91505092915050565b6000819050919050565b61035881610345565b811461036357600080fd5b50565b6000813590506103758161034f565b92915050565b600080600060608486031215610394576103936101f5565b5b600084013567ffffffffffffffff8111156103b2576103b16101fa565b5b6103be86828701610317565b935050602084013567ffffffffffffffff8111156103df576103de6101fa565b5b6103eb86828701610317565b92505060406103fc86828701610366565b9150509250925092565b61040f81610345565b82525050565b600060208201905061042a6000830184610406565b92915050565b600073ffffffffffffffffffffffffffffffffffffffff82169050919050565b600061045b82610430565b9050919050565b61046b81610450565b82525050565b60006020820190506104866000830184610462565b92915050565b600082825260208201905092915050565b7f546f6f204c6f7721000000000000000000000000000000000000000000000000600082015250565b60006104d360088361048c565b91506104de8261049d565b602082019050919050565b60006020820190508181036000830152610502816104c6565b9050919050565b600081519050919050565b60005b83811015610532578082015181840152602081019050610517565b60008484015250505050565b600061054982610509565b610553818561048c565b9350610563818560208601610514565b61056c81610209565b840191505092915050565b60006020820190508181036000830152610591818461053e565b90509291505056fea26469706673582212203c8895bd45079e0a53f6dd6b2baac112c837e952017f97dbb87777226134237c64736f6c63430008110033",
  "linkReferences": {},
  "deployedLinkReferences": {}
}